{
  "address": "0x78f791d31de2F0EF75501859f768123E268e35F2",
  "abi": [
    {
      "inputs": [
        {
          "internalType": "address[]",
          "name": "_priceFeedAddresses",
          "type": "address[]"
        },
        {
          "internalType": "string[]",
          "name": "_priceFeedNames",
          "type": "string[]"
        }
      ],
      "stateMutability": "nonpayable",
      "type": "constructor"
    },
    {
      "inputs": [],
      "name": "ForexPrices__IndexOutOfRange",
      "type": "error"
    },
    {
      "inputs": [],
      "name": "ForexPrices__NotOwner",
      "type": "error"
    },
    {
      "anonymous": false,
      "inputs": [
        {
          "indexed": false,
          "internalType": "address",
          "name": "_newPriceFeed",
          "type": "address"
        },
        {
          "indexed": false,
          "internalType": "string",
          "name": "_newPriceFeedName",
          "type": "string"
        }
      ],
      "name": "AddedNewPriceFeed",
      "type": "event"
    },
    {
      "anonymous": false,
      "inputs": [
        {
          "indexed": false,
          "internalType": "address[]",
          "name": "_priceFeeds",
          "type": "address[]"
        },
        {
          "indexed": false,
          "internalType": "string[]",
          "name": "_priceFeedNames",
          "type": "string[]"
        }
      ],
      "name": "AllPriceFeeds",
      "type": "event"
    },
    {
      "anonymous": false,
      "inputs": [
        {
          "indexed": true,
          "internalType": "address",
          "name": "previousOwner",
          "type": "address"
        },
        {
          "indexed": true,
          "internalType": "address",
          "name": "newOwner",
          "type": "address"
        }
      ],
      "name": "OwnershipTransferred",
      "type": "event"
    },
    {
      "anonymous": false,
      "inputs": [
        {
          "indexed": false,
          "internalType": "address",
          "name": "_newPriceFeed",
          "type": "address"
        },
        {
          "indexed": false,
          "internalType": "string",
          "name": "_newPriceFeedName",
          "type": "string"
        }
      ],
      "name": "RemovedPriceFeed",
      "type": "event"
    },
    {
      "inputs": [
        {
          "internalType": "address",
          "name": "_newPriceFeed",
          "type": "address"
        },
        {
          "internalType": "string",
          "name": "_newPriceFeedName",
          "type": "string"
        }
      ],
      "name": "addPriceFeed",
      "outputs": [],
      "stateMutability": "nonpayable",
      "type": "function"
    },
    {
      "inputs": [],
      "name": "getAllPriceFeedAddresses",
      "outputs": [
        {
          "internalType": "address[]",
          "name": "",
          "type": "address[]"
        }
      ],
      "stateMutability": "view",
      "type": "function"
    },
    {
      "inputs": [],
      "name": "getAllPriceFeedNames",
      "outputs": [
        {
          "internalType": "string[]",
          "name": "",
          "type": "string[]"
        }
      ],
      "stateMutability": "view",
      "type": "function"
    },
    {
      "inputs": [
        {
          "internalType": "address",
          "name": "_priceFeedAddress",
          "type": "address"
        }
      ],
      "name": "getLatestPriceFromAddress",
      "outputs": [
        {
          "internalType": "int256",
          "name": "",
          "type": "int256"
        }
      ],
      "stateMutability": "view",
      "type": "function"
    },
    {
      "inputs": [
        {
          "internalType": "uint256",
          "name": "_index",
          "type": "uint256"
        }
      ],
      "name": "getPriceFeedAddressFromIndex",
      "outputs": [
        {
          "internalType": "address",
          "name": "",
          "type": "address"
        }
      ],
      "stateMutability": "view",
      "type": "function"
    },
    {
      "inputs": [
        {
          "internalType": "uint256",
          "name": "_index",
          "type": "uint256"
        }
      ],
      "name": "getPriceFeedNameFromIndex",
      "outputs": [
        {
          "internalType": "string",
          "name": "",
          "type": "string"
        }
      ],
      "stateMutability": "view",
      "type": "function"
    },
    {
      "inputs": [],
      "name": "owner",
      "outputs": [
        {
          "internalType": "address",
          "name": "",
          "type": "address"
        }
      ],
      "stateMutability": "view",
      "type": "function"
    },
    {
      "inputs": [
        {
          "internalType": "address",
          "name": "_priceFeed",
          "type": "address"
        }
      ],
      "name": "removePriceFeed",
      "outputs": [],
      "stateMutability": "nonpayable",
      "type": "function"
    },
    {
      "inputs": [],
      "name": "renounceOwnership",
      "outputs": [],
      "stateMutability": "nonpayable",
      "type": "function"
    },
    {
      "inputs": [
        {
          "internalType": "address",
          "name": "",
          "type": "address"
        }
      ],
      "name": "s_addressToPriceFeedAggregator",
      "outputs": [
        {
          "internalType": "contract AggregatorV3Interface",
          "name": "",
          "type": "address"
        }
      ],
      "stateMutability": "view",
      "type": "function"
    },
    {
      "inputs": [
        {
          "internalType": "address",
          "name": "",
          "type": "address"
        }
      ],
      "name": "s_addressToPriceFeedName",
      "outputs": [
        {
          "internalType": "string",
          "name": "",
          "type": "string"
        }
      ],
      "stateMutability": "view",
      "type": "function"
    },
    {
      "inputs": [
        {
          "internalType": "address",
          "name": "newOwner",
          "type": "address"
        }
      ],
      "name": "transferOwnership",
      "outputs": [],
      "stateMutability": "nonpayable",
      "type": "function"
    }
  ],
  "transactionHash": "0xd545632da03e3be7d436b7da80df9846fff080a59b8bcd4f7facb36d7213e8a7",
  "args": [
    [
      "0x007A22900a3B98143368Bd5906f8E17e9867581b",
      "0x0FCAa9c899EC5A91eBc3D5Dd869De833b06fB046",
      "0x0715A7794a1dc8e42615F059dD6e406A6594651A",
      "0x7d7356bF6Ee5CDeC22B216581E48eCC700D0497A",
      "0x12162c3E810393dEC01362aBf156D7ecf6159528",
      "0xd0D5e3DB44DE05E9F294BB0a3bEEaF030DE24Ada",
      "0x9dd18534b8f456557d11B9DDB14dA89b2e52e308",
      "0x572dDec9087154dC5dfBB1546Bb62713147e0Ab0",
      "0x92C09849638959196E976289418e5973CC96d645"
    ],
    [
      "btcUsdPriceFeed",
      "daiUsdPriceFeed",
      "ethUsdPriceFeed",
      "eurUsdPriceFeed",
      "linkMaticPriceFeed",
      "maticUsdPriceFeed",
      "sandUsdPriceFeed",
      "usdcUsdPriceFeed",
      "usdUsdtPriceFeed"
    ]
  ],
  "numDeployments": 2,
  "solcInputHash": "4721a57cad1ccabac27c6f5d11a8a0d4",
  "bytecode": "0x60a06040523480156200001157600080fd5b506040516200176338038062001763833981016040819052620000349162000628565b6200003f336200008c565b6000546001600160a01b031660805281516200006390600190602085019062000258565b50805162000079906002906020840190620002c2565b5062000084620000dc565b5050620008c9565b600080546001600160a01b038381166001600160a01b0319831681178455604051919092169283917f8be0079c531659141344cd1fd0a4f28419497f9722a3daafe3b4186f6b6457e09190a35050565b60005b60015460ff82161015620002185760028160ff168154811062000106576200010662000706565b906000526020600020016003600060018460ff16815481106200012d576200012d62000706565b60009182526020808320909101546001600160a01b031683528201929092526040019020815490919062000161906200071c565b6200016e92919062000322565b5060018160ff168154811062000188576200018862000706565b9060005260206000200160009054906101000a90046001600160a01b03166004600060018460ff1681548110620001c357620001c362000706565b6000918252602080832091909101546001600160a01b039081168452908301939093526040909101902080546001600160a01b03191692909116919091179055806200020f8162000759565b915050620000df565b507f50960aa77c79e1b06eb11ffca0b0143623586c1ebaf85d710b520de2ecb6e9a4600160026040516200024e92919062000788565b60405180910390a1565b828054828255906000526020600020908101928215620002b0579160200282015b82811115620002b057825182546001600160a01b0319166001600160a01b0390911617825560209092019160019091019062000279565b50620002be929150620003a6565b5090565b82805482825590600052602060002090810192821562000314579160200282015b8281111562000314578251805162000303918491602090910190620003bd565b5091602001919060010190620002e3565b50620002be9291506200043a565b82805462000330906200071c565b90600052602060002090601f016020900481019282620003545760008555620002b0565b82601f10620003675780548555620002b0565b82800160010185558215620002b057600052602060002091601f016020900482015b82811115620002b057825482559160010191906001019062000389565b5b80821115620002be5760008155600101620003a7565b828054620003cb906200071c565b90600052602060002090601f016020900481019282620003ef5760008555620002b0565b82601f106200040a57805160ff1916838001178555620002b0565b82800160010185558215620002b0579182015b82811115620002b05782518255916020019190600101906200041d565b80821115620002be5760006200045182826200045b565b506001016200043a565b50805462000469906200071c565b6000825580601f106200047a575050565b601f0160209004906000526020600020908101906200049a9190620003a6565b50565b634e487b7160e01b600052604160045260246000fd5b604051601f8201601f191681016001600160401b0381118282101715620004de57620004de6200049d565b604052919050565b60006001600160401b038211156200050257620005026200049d565b5060051b60200190565b6000601f83818401126200051f57600080fd5b82516020620005386200053283620004e6565b620004b3565b82815260059290921b850181019181810190878411156200055857600080fd5b8287015b848110156200061c5780516001600160401b03808211156200057e5760008081fd5b818a0191508a603f830112620005945760008081fd5b8582015181811115620005ab57620005ab6200049d565b620005be818a01601f19168801620004b3565b915080825260408c81838601011115620005d85760008081fd5b60005b82811015620005f8578481018201518482018a01528801620005db565b828111156200060a5760008984860101525b5050508452509183019183016200055c565b50979650505050505050565b600080604083850312156200063c57600080fd5b82516001600160401b03808211156200065457600080fd5b818501915085601f8301126200066957600080fd5b815160206200067c6200053283620004e6565b82815260059290921b840181019181810190898411156200069c57600080fd5b948201945b83861015620006d35785516001600160a01b0381168114620006c35760008081fd5b82529482019490820190620006a1565b91880151919650909350505080821115620006ed57600080fd5b50620006fc858286016200050c565b9150509250929050565b634e487b7160e01b600052603260045260246000fd5b600181811c908216806200073157607f821691505b602082108114156200075357634e487b7160e01b600052602260045260246000fd5b50919050565b600060ff821660ff8114156200077f57634e487b7160e01b600052601160045260246000fd5b60010192915050565b60006040820160408352808554808352606085019150600092508683526020808420845b83811015620007d35781546001600160a01b031685529382019360019182019101620007ac565b50508583038187015286548084528785528185208285019350600582901b8501830190865b83811015620008b957868303601f1901865281548890600181811c90808316806200082457607f831692505b8983108114156200084357634e487b7160e01b8d52602260045260248dfd5b8288526020880181801562000861576001811462000873576200089f565b60ff19861682528b820196506200089f565b6000898152602090208f5b868110156200089957815484820152908501908d016200087e565b83019750505b5050509888019892955050509190910190600101620007f8565b50909a9950505050505050505050565b608051610e77620008ec600039600081816102f701526106e50152610e776000f3fe608060405234801561001057600080fd5b50600436106100b45760003560e01c8063883456631161007157806388345663146101685780638da5cb5b1461017d5780639484b8481461018e578063f2fde38b146101a1578063fceb0024146101b4578063fcf98cb9146101c757600080fd5b80630296ba63146100b95780631ca60ffe146100e25780632b13f474146100f7578063328f96c01461010c5780633bc51d9a1461014d578063715018a614610160575b600080fd5b6100cc6100c7366004610b12565b6101e8565b6040516100d99190610b81565b60405180910390f35b6100ea610282565b6040516100d99190610b94565b61010a610105366004610be1565b6102e4565b005b61013561011a366004610b12565b6004602052600090815260409020546001600160a01b031681565b6040516001600160a01b0390911681526020016100d9565b6100cc61015b366004610c64565b610442565b61010a610514565b610170610528565b6040516100d99190610c7d565b6000546001600160a01b0316610135565b61013561019c366004610c64565b610601565b61010a6101af366004610b12565b610654565b61010a6101c2366004610b12565b6106d2565b6101da6101d5366004610b12565b6108f3565b6040519081526020016100d9565b6003602052600090815260409020805461020190610cdf565b80601f016020809104026020016040519081016040528092919081815260200182805461022d90610cdf565b801561027a5780601f1061024f5761010080835404028352916020019161027a565b820191906000526020600020905b81548152906001019060200180831161025d57829003601f168201915b505050505081565b606060018054806020026020016040519081016040528092919081815260200182805480156102da57602002820191906000526020600020905b81546001600160a01b031681526001909101906020018083116102bc575b5050505050905090565b6102ec61097d565b336001600160a01b037f000000000000000000000000000000000000000000000000000000000000000016146103355760405163cff833a960e01b815260040160405180910390fd5b6001805480820182557fb10e2d527612073b26eecdfd717e6a320cf44b4afac2b0732d9fcbe2b7fa0cf60180546001600160a01b0319166001600160a01b0386161790556002805491820181556000526103b2907f405787fa12a823e0f2b7631cc41b3ba8828b3321ca811111fa75cd3aa3bb5ace018383610a27565b506001600160a01b03831660009081526003602052604090206103d6908383610a27565b506001600160a01b0383166000818152600460205260409081902080546001600160a01b031916909217909155517f9101f7d3a2a87ea49e0710f95f8b83b4117eee6f806786a56464b8adda1354dc9061043590859085908590610d1a565b60405180910390a1505050565b60025460609082106104675760405163c0efd19760e01b815260040160405180910390fd5b6002828154811061047a5761047a610d5a565b90600052602060002001805461048f90610cdf565b80601f01602080910402602001604051908101604052809291908181526020018280546104bb90610cdf565b80156105085780601f106104dd57610100808354040283529160200191610508565b820191906000526020600020905b8154815290600101906020018083116104eb57829003601f168201915b50505050509050919050565b61051c61097d565b61052660006109d7565b565b60606002805480602002602001604051908101604052809291908181526020016000905b828210156105f857838290600052602060002001805461056b90610cdf565b80601f016020809104026020016040519081016040528092919081815260200182805461059790610cdf565b80156105e45780601f106105b9576101008083540402835291602001916105e4565b820191906000526020600020905b8154815290600101906020018083116105c757829003601f168201915b50505050508152602001906001019061054c565b50505050905090565b60015460009082106106265760405163c0efd19760e01b815260040160405180910390fd5b6001828154811061063957610639610d5a565b6000918252602090912001546001600160a01b031692915050565b61065c61097d565b6001600160a01b0381166106c65760405162461bcd60e51b815260206004820152602660248201527f4f776e61626c653a206e6577206f776e657220697320746865207a65726f206160448201526564647265737360d01b60648201526084015b60405180910390fd5b6106cf816109d7565b50565b6106da61097d565b336001600160a01b037f000000000000000000000000000000000000000000000000000000000000000016146107235760405163cff833a960e01b815260040160405180910390fd5b6001805460009190610736908290610d70565b8154811061074657610746610d5a565b600091825260209091200154600180546001600160a01b039092169250908061077157610771610d95565b600082815260208120820160001990810180546001600160a01b0319169055909101909155600280546107a690600190610d70565b815481106107b6576107b6610d5a565b9060005260206000200180546107cb90610cdf565b80601f01602080910402602001604051908101604052809291908181526020018280546107f790610cdf565b80156108445780601f1061081957610100808354040283529160200191610844565b820191906000526020600020905b81548152906001019060200180831161082757829003601f168201915b50505050509050600280548061085c5761085c610d95565b6001900381819060005260206000200160006108789190610aab565b90556001600160a01b038316600090815260036020526040812061089b91610aab565b6001600160a01b0383166000908152600460205260409081902080546001600160a01b0319169055517f59285489cd47748532f05c5b88a7c4acfcdc1f83d245353b5a0796810f54edae906104359084908490610dab565b6001600160a01b038082166000908152600460208190526040808320548151633fabe5a360e21b81529151939416928492849263feaf968c928183019260a0928290030181865afa15801561094c573d6000803e3d6000fd5b505050506040513d601f19601f820116820180604052508101906109709190610df1565b5091979650505050505050565b6000546001600160a01b031633146105265760405162461bcd60e51b815260206004820181905260248201527f4f776e61626c653a2063616c6c6572206973206e6f7420746865206f776e657260448201526064016106bd565b600080546001600160a01b038381166001600160a01b0319831681178455604051919092169283917f8be0079c531659141344cd1fd0a4f28419497f9722a3daafe3b4186f6b6457e09190a35050565b828054610a3390610cdf565b90600052602060002090601f016020900481019282610a555760008555610a9b565b82601f10610a6e5782800160ff19823516178555610a9b565b82800160010185558215610a9b579182015b82811115610a9b578235825591602001919060010190610a80565b50610aa7929150610ae1565b5090565b508054610ab790610cdf565b6000825580601f10610ac7575050565b601f0160209004906000526020600020908101906106cf91905b5b80821115610aa75760008155600101610ae2565b80356001600160a01b0381168114610b0d57600080fd5b919050565b600060208284031215610b2457600080fd5b610b2d82610af6565b9392505050565b6000815180845260005b81811015610b5a57602081850181015186830182015201610b3e565b81811115610b6c576000602083870101525b50601f01601f19169290920160200192915050565b602081526000610b2d6020830184610b34565b6020808252825182820181905260009190848201906040850190845b81811015610bd55783516001600160a01b031683529284019291840191600101610bb0565b50909695505050505050565b600080600060408486031215610bf657600080fd5b610bff84610af6565b9250602084013567ffffffffffffffff80821115610c1c57600080fd5b818601915086601f830112610c3057600080fd5b813581811115610c3f57600080fd5b876020828501011115610c5157600080fd5b6020830194508093505050509250925092565b600060208284031215610c7657600080fd5b5035919050565b6000602080830181845280855180835260408601915060408160051b870101925083870160005b82811015610cd257603f19888603018452610cc0858351610b34565b94509285019290850190600101610ca4565b5092979650505050505050565b600181811c90821680610cf357607f821691505b60208210811415610d1457634e487b7160e01b600052602260045260246000fd5b50919050565b6001600160a01b03841681526040602082018190528101829052818360608301376000818301606090810191909152601f909201601f1916010192915050565b634e487b7160e01b600052603260045260246000fd5b600082821015610d9057634e487b7160e01b600052601160045260246000fd5b500390565b634e487b7160e01b600052603160045260246000fd5b6001600160a01b0383168152604060208201819052600090610dcf90830184610b34565b949350505050565b805169ffffffffffffffffffff81168114610b0d57600080fd5b600080600080600060a08688031215610e0957600080fd5b610e1286610dd7565b9450602086015193506040860151925060608601519150610e3560808701610dd7565b9050929550929590935056fea2646970667358221220069a02c3a48aa500a09054058057a7e02cd67699233ac936623f9a1e77d3dc5764736f6c634300080c0033",
  "devdoc": {
    "author": "Jesus Badillo Jr.",
    "kind": "dev",
    "methods": {
      "addPriceFeed(address,string)": {
        "details": "Add a priceFeed to the contract",
        "params": {
          "_newPriceFeed": "the address of the priceFeed to be able to get information from the chainlink oracle",
          "_newPriceFeedName": "the name corresponding to the priceFeed passed into the contract"
        }
      },
      "owner()": {
        "details": "Returns the address of the current owner."
      },
      "removePriceFeed(address)": {
        "details": "Remove a priceFeed from the contract",
        "params": {
          "_priceFeed": "the address of the priceFeed to be able to get information from the chainlink oracle"
        }
      },
      "renounceOwnership()": {
        "details": "Leaves the contract without owner. It will not be possible to call `onlyOwner` functions anymore. Can only be called by the current owner. NOTE: Renouncing ownership will leave the contract without an owner, thereby removing any functionality that is only available to the owner."
      },
      "transferOwnership(address)": {
        "details": "Transfers ownership of the contract to a new account (`newOwner`). Can only be called by the current owner."
      }
    },
    "title": "ForexPrices: a smart contract that lists the PriceFeeds of multiple tokens,forex, and commodoties",
    "version": 1
  },
  "userdoc": {
    "kind": "user",
    "methods": {},
    "version": 1
  },
  "storageLayout": {
    "storage": [
      {
        "astId": 53,
        "contract": "contracts/ForexPrices.sol:ForexPrices",
        "label": "_owner",
        "offset": 0,
        "slot": "0",
        "type": "t_address"
      },
      {
        "astId": 200,
        "contract": "contracts/ForexPrices.sol:ForexPrices",
        "label": "s_priceFeedAddresses",
        "offset": 0,
        "slot": "1",
        "type": "t_array(t_address)dyn_storage"
      },
      {
        "astId": 203,
        "contract": "contracts/ForexPrices.sol:ForexPrices",
        "label": "s_priceFeedNames",
        "offset": 0,
        "slot": "2",
        "type": "t_array(t_string_storage)dyn_storage"
      },
      {
        "astId": 207,
        "contract": "contracts/ForexPrices.sol:ForexPrices",
        "label": "s_addressToPriceFeedName",
        "offset": 0,
        "slot": "3",
        "type": "t_mapping(t_address,t_string_storage)"
      },
      {
        "astId": 212,
        "contract": "contracts/ForexPrices.sol:ForexPrices",
        "label": "s_addressToPriceFeedAggregator",
        "offset": 0,
        "slot": "4",
        "type": "t_mapping(t_address,t_contract(AggregatorV3Interface)45)"
      }
    ],
    "types": {
      "t_address": {
        "encoding": "inplace",
        "label": "address",
        "numberOfBytes": "20"
      },
      "t_array(t_address)dyn_storage": {
        "base": "t_address",
        "encoding": "dynamic_array",
        "label": "address[]",
        "numberOfBytes": "32"
      },
      "t_array(t_string_storage)dyn_storage": {
        "base": "t_string_storage",
        "encoding": "dynamic_array",
        "label": "string[]",
        "numberOfBytes": "32"
      },
      "t_contract(AggregatorV3Interface)45": {
        "encoding": "inplace",
        "label": "contract AggregatorV3Interface",
        "numberOfBytes": "20"
      },
      "t_mapping(t_address,t_contract(AggregatorV3Interface)45)": {
        "encoding": "mapping",
        "key": "t_address",
        "label": "mapping(address => contract AggregatorV3Interface)",
        "numberOfBytes": "32",
        "value": "t_contract(AggregatorV3Interface)45"
      },
      "t_mapping(t_address,t_string_storage)": {
        "encoding": "mapping",
        "key": "t_address",
        "label": "mapping(address => string)",
        "numberOfBytes": "32",
        "value": "t_string_storage"
      },
      "t_string_storage": {
        "encoding": "bytes",
        "label": "string",
        "numberOfBytes": "32"
      }
    }
  }
}